:100000000C943E000C945B000C945B000C945B0021
:100010000C945B000C945B000C945B000C945B00F4
:100020000C945B000C945B000C945B000C945B00E4
:100030000C945B000C945B000C945B000C945B00D4
:100040000C945B000C945B000C945B000C945B00C4
:100050000C945B000C945B000C945B000C945B00B4
:100060000C945B000C945B000C945B000C945B00A4
:100070000C945B000C945B000C945B0011241FBE7D
:10008000CFEFD8E0DEBFCDBF11E0A0E0B1E0E0EF00
:10009000FCE002C005900D92AE32B107D9F721E025
:1000A000AEE2B1E001C01D92A533B207E1F70E94B4
:1000B00071010C9476060C9400000F931F93CF935C
:1000C000DF93C0E0D0E0A0E0B0E08FEF9FEF00E171
:1000D00010E0E1E0F0E098010A2E02C0220F331F89
:1000E0000A94E2F721B922B960E070E020B130E073
:1000F000AF01062E02C0440F551F0A94E2F72423D5
:1001000035234217530719F4CB018C0F9D1F6F5FE6
:100110007F4F6430710551F711962496A430B105D4
:10012000D1F6DF91CF911F910F910895CF93DF9377
:10013000CDB7DEB760970FB6F894DEBF0FBECDBF68
:10014000803198F490E1EEE0F1E0DE01119601904B
:100150000D929A95E1F7E1E0F0E0EC0FFD1FE80F5A
:10016000F11D87FDFA95808101C08FEF60960FB673
:10017000F894DEBF0FBECDBFDF91CF9108958F926F
:100180009F92AF92BF92CF92DF92EF92FF920F9326
:100190001F93CF93DF937B018B01862E9F2CC82E5C
:1001A000D12C0E945D008F3FE1F70E945D008F3FE0
:1001B000E1F3C82DD92DC8018E199F098C159D0515
:1001C0006CF40E945D000E9496008E303CF40E9408
:1001D0005D000E949600F80181938F010E945D00EE
:1001E0000E9496008A3241F4C8018E199F091816A0
:1001F000190604F5015011090E945D000E94960045
:100200008332F1F081E00E9488025801AE18BF08E5
:100210001A141B0434F6C0E0D0E08AE290E00E9499
:10022000A7032196CA15DB05C1F7BBCF81E00E9469
:100230008802B7CF0E945D000E9496008332B1F71A
:10024000C8018C1B9D0BDF91CF911F910F91FF90E7
:10025000EF90DF90CF90BF90AF909F908F900895D8
:100260008823B1F0FB012081FA019081291312C08B
:10027000FB013196DA011196680F711D04C091914E
:100280008D91981309C0E617F707C9F781E0089523
:1002900081E0089580E0089580E008952EE130E047
:1002A000281B390B309385002093840081E086BBA6
:1002B000B09BFECF08950F931F93CF93DF930097CA
:1002C00059F08C01C0E0D0E088EE93E00E944E012E
:1002D0002196C017D107C1F7DF91CF911F910F91E0
:1002E0000895CF93DF93CDB7DEB764970FB6F89438
:1002F000DEBF0FBECDBF81E089838A838B838C8371
:1003000080938100509A0E94A10280E091E0909336
:10031000320180933101FF24F3940F2EF8E2CF2EA7
:10032000F1E0DF2EF02DEF2C0F2EFEE18F2EF1E00D
:100330009F2EF02D8F2D0E948802BE016B5F7F4F94
:1003400080E10E94BF00182F8F2D0E948802143078
:1003500009F049C0AE014B5F5F4FBE016F5F7F4F39
:1003600084E00E9430018130C9F49F928F920E94F4
:1003700091030F900F9000E713E0FBB880E794E043
:100380000E944E011BB880E794E00E944E0101508C
:10039000110999F78F2D0E948802CCCF6894AA2466
:1003A000A2F8B12CDF92CF920E9491030F900F9090
:1003B00008E310E0FBB88BE998E00E944E011BB8FF
:1003C0008BE998E00E944E010150110999F78E2D9A
:1003D0000E9488028AEF90E00E945B0181E0A81AE7
:1003E000B10801F7A7CF6894AA24A2F8B12CDF9234
:1003F000CF920E9491030F900F9008E310E0FBB89A
:100400008BE998E00E944E011BB88BE998E00E94AE
:100410004E010150110999F78E2D0E9488028AEF32
:1004200090E00E945B0181E0A81AB10801F782CF39
:10043000479A85E08A95F1F70000479885E08A950C
:10044000F1F70000089584B1807F84B995B1292F18
:1004500020712C98469A479A85E08A95F1F700001A
:1004600093B1479885E08A95F1F70000479A85E0B7
:100470008A95F1F7000083B19295907F8F70892B58
:10048000479895E09A95F1F7000087FDE4CF4698EC
:1004900095B19F7E922B95B994B19F6094B90895C0
:1004A0000E94230284B1807F84B9469A479A85E0EE
:1004B0008A95F1F7000023B1479885E08A95F1F716
:1004C0000000479A85E08A95F1F7000093B12295E4
:1004D000207F892F8F704798469894B19F6094B978
:1004E000822B0895CF93C82F0E94230295B18C2FA1
:1004F00082958F70907F982B95B90E94180295B1C4
:100500008C2F8F70907F892B85B9CF910C94180216
:10051000CF93C82F2C980E94230295B18C2F8295DF
:100520008F70907F982B95B90E94180295B18C2FEF
:100530008F70907F892B85B90E9418022C9ACF91D9
:10054000089585B1807E85B92C984698479884B1E6
:100550008F6184B987B1806C87B98FE59AEE019776
:10056000F1F700C0000085B1807F836085B90E94EB
:10057000180287E090E20197F1F700C0000085B112
:10058000807F836085B90E94180287EC90E0019714
:10059000F1F700C0000085B1807F836085B90E94BB
:1005A00018020E94230285B1807F826085B90E9473
:1005B000180284E20E9488028CE20E94880288E08D
:1005C0000E94880281E00E94880286E00E948802E0
:1005D0008FE00E94880280ED0E9488022C9A089584
:1005E0003F924F925F926F927F928F929F92AF92C3
:1005F000BF92CF92DF92EF92FF920F931F93CF9310
:10060000DF93CDB7DEB7E0970FB6F894DEBF0FBE2D
:10061000CDBF8A3009F481C0382E80912E0181111E
:100620001DC0832D0E94720281E090E0E0960FB61B
:10063000F894DEBF0FBECDBFDF91CF911F910F9118
:10064000FF90EF90DF90CF90BF90AF909F908F90F2
:100650007F906F905F904F903F90089580EC0E9444
:1006600088028E010F5F1F4F4E0181E1880E911CA1
:1006700078010E945002F70181937F01E815F90586
:10068000C1F780E90E94880264015E01F1E2AF0EC9
:10069000B11C74010E945002F70181937F01EA1599
:1006A000FB05C1F780ED0E94880275013E01F1E370
:1006B0006F0E711C25010E945002F20181932F01DF
:1006C000E615F705C1F781E00E94880280E80E94E4
:1006D0008802F80181918F010E94720280169106B2
:1006E000C1F780EC0E948802F60181916F010E949F
:1006F0007202AC14BD04C1F780E90E948802F701C0
:1007000081917F010E9472026E147F04C1F780ED17
:100710000E94880210922E0184CF81E080932E01E6
:1007200083CFA0E0B0E0E7E9F3E00C944F06AE0120
:100730004B5F5F4FFA0161917191AF01809131017F
:10074000909132010E94AE03E2E00C946B0660913E
:100750003101709132010E94A5050895ABE0B0E02F
:10076000E4EBF3E00C943F066C017B018A01FC0191
:1007700017821682838181FFCCC1CE0101963C0194
:10078000F6019381F70193FD859193FF81917F019C
:10079000882309F4BAC1853239F493FD859193FF1A
:1007A00081917F01853229F4B60190E00E94A50570
:1007B000E7CF912C212C312CFFE1F315D8F08B32AF
:1007C00079F038F4803279F08332A1F4232D20615E
:1007D0001DC08D3261F0803369F4232D216016C075
:1007E000832D8260382EE32DE4603E2E2AC0F32D47
:1007F000F8601DC037FC2DC020ED280F2A3040F0D6
:100800008E32B9F436FC81C1232D2064322E19C0FA
:1008100036FE06C08AE0989E200D1124922E11C04B
:10082000EAE02E9E200D1124222EF32DF0623F2EA1
:1008300008C08C3621F4832D8068382E02C088369B
:1008400041F4F70193FD859193FF81917F0181111F
:10085000B3CF982F9F7D9554933028F40C5F1F4F92
:100860009FE399830DC0833631F0833771F0833570
:1008700009F059C021C0F801808189830E5F1F4FA4
:1008800088248394912C530113C02801F2E04F0E69
:10089000511CF801A080B18036FE03C0692D70E0C4
:1008A00002C06FEF7FEFC5010E949A054C018201E3
:1008B000F32DFF773F2E16C0280122E0420E511C77
:1008C000F801A080B18036FE03C0692D70E002C03F
:1008D0006FEF7FEFC5010E948F054C01F32DF0688B
:1008E0003F2E820133FC1BC0822D90E088169906B2
:1008F000B0F4B60180E290E00E94A5052A94F4CFFE
:10090000F50137FC859137FE81915F01B60190E0DA
:100910000E94A50521102A9421E0821A91088114D1
:10092000910471F7E8C0843611F0893641F5F80179
:1009300037FE07C060817181828193810C5F1F4FF8
:1009400008C060817181072E000C880B990B0E5F27
:100950001F4FF32DFF763F2E97FF09C0909580958E
:10096000709561957F4F8F4F9F4FF0683F2E2AE023
:1009700030E0A3010E94E105882E861845C0853726
:1009800031F4232D2F7EB22E2AE030E025C0932DA6
:10099000997FB92E8F36C1F018F4883579F0B5C03B
:1009A000803719F0883721F0B0C0E92FE061BE2E02
:1009B000B4FE0DC0FB2DF460BF2E09C034FE0AC08A
:1009C000292F2660B22E06C028E030E005C020E1C5
:1009D00030E002C020E132E0F801B7FE07C06081DC
:1009E0007181828193810C5F1F4F06C0608171818C
:1009F00080E090E00E5F1F4FA3010E94E105882E6A
:100A00008618FB2DFF773F2E36FE0DC0232D2E7F3F
:100A1000A22E891458F434FE0BC032FC09C0832D79
:100A20008E7EA82E05C0B82CA32C03C0B82C01C004
:100A3000B92CA4FE0FC0FE01E80DF11D80818033AA
:100A400021F49A2D997EA92E09C0A2FE06C0B39466
:100A5000B39404C08A2D867809F0B394A3FC11C026
:100A6000A0FE06C0B21488F4280C922C9B180EC06D
:100A7000B21460F4B60180E290E00E94A505B39440
:100A8000F7CFB21418F42B1802C0982C212CA4FE16
:100A900010C0B60180E390E00E94A505A2FE17C039
:100AA000A1FC03C088E790E002C088E590E0B601B1
:100AB0000CC08A2D867859F0A1FE02C08BE201C0DD
:100AC00080E2A7FC8DE2B60190E00E94A5058914A2
:100AD00038F4B60180E390E00E94A5059A94F7CF20
:100AE0008A94F301E80DF11D8081B60190E00E9427
:100AF000A5058110F5CF222009F442CEB60180E28F
:100B000090E00E94A5052A94F6CFF6018681978190
:100B100002C08FEF9FEF2B96E2E10C945B06FC0185
:100B20000590615070400110D8F7809590958E0F18
:100B30009F1F0895FC016150704001900110D8F78B
:100B4000809590958E0F9F1F08950F931F93CF93BD
:100B5000DF93FB01238121FD03C08FEF9FEF2CC0AA
:100B600022FF16C0468157812481358142175307E1
:100B700044F4A081B1819D012F5F3F4F31832083D9
:100B80008C93268137812F5F3F4F3783268314C094
:100B90008B01EC01FB010084F185E02D0995892B87
:100BA000E1F6D80116968D919C91179701961796AC
:100BB0009C938E931697CE01DF91CF911F910F9149
:100BC0000895FA01AA27283051F1203181F1E894E3
:100BD0006F936E7F6E5F7F4F8F4F9F4FAF4FB1E030
:100BE0003ED0B4E03CD0670F781F891F9A1FA11D2B
:100BF000680F791F8A1F911DA11D6A0F711D811D2C
:100C0000911DA11D20D009F468943F912AE0269FF0
:100C100011243019305D3193DEF6CF010895462F4F
:100C20004770405D4193B3E00FD0C9F7F6CF462F30
:100C30004F70405D4A3318F0495D31FD4052419399
:100C400002D0A9F7EACFB4E0A69597958795779556
:100C50006795BA95C9F700976105710508959B01DD
:100C6000AC010A2E06945795479537952795BA9566
:100C7000C9F7620F731F841F951FA01D08952F923F
:100C80003F924F925F926F927F928F929F92AF921C
:100C9000BF92CF92DF92EF92FF920F931F93CF9369
:100CA000DF93CDB7DEB7CA1BDB0B0FB6F894DEBF00
:100CB0000FBECDBF09942A88398848885F846E8426
:100CC0007D848C849B84AA84B984C884DF80EE8070
:100CD000FD800C811B81AA81B981CE0FD11D0FB679
:100CE000F894DEBF0FBECDBFED010895F894FFCF9D
:100CF0000000000200000000F002000000000102FD
:100D0000030A0405060B0708090C2A00230D4F707F
:0E0D1000656E204C6F636B004572726F72004F
:00000001FF
