S00D00004C616231312E73726563A6
S11300000C943E000C945B000C945B000C945B001D
S11300100C945B000C945B000C945B000C945B00F0
S11300200C945B000C945B000C945B000C945B00E0
S11300300C945B000C945B000C945B000C945B00D0
S11300400C945B000C945B000C945B000C945B00C0
S11300500C945B000C945B000C945B000C945B00B0
S11300600C945B000C945B000C945B000C945B00A0
S11300700C945B000C945B000C945B0011241FBE79
S1130080CFEFD8E0DEBFCDBF13E0A0E0B1E0ECEDF0
S1130090F6E002C005900D92A03BB107D9F723E02A
S11300A0A0EBB3E001C01D92A73BB207E1F70E94A9
S11300B070010C946C030C9400000F931F93CF9366
S11300C0DF93C0E0D0E0A0E0B0E08FEF9FEF00E16D
S11300D010E0E1E0F0E098010A2E02C0220F331F85
S11300E00A94E2F721B922B960E070E020B130E06F
S11300F0AF01062E02C0440F551F0A94E2F72423D1
S113010035234217530719F4CB018C0F9D1F6F5FE2
S11301107F4F6430710551F711962496A430B105D0
S1130120D1F6DF91CF911F910F910895CF93DF9373
S1130130CDB7DEB760970FB6F894DEBF0FBECDBF64
S1130140803198F490E1EEE0F1E0DE011196019047
S11301500D929A95E1F7E1E0F0E0EC0FFD1FE80F56
S1130160F11D87FDFA95808101C08FEF60960FB66F
S1130170F894DEBF0FBECDBFDF91CF910895E0ECC0
S1130180F0E08081826080831092C5008CE08093CF
S1130190C40086E08093C20088E18093C100089582
S11301A02EE130E0281B390B309385002093840026
S11301B081E086BBB09BFECF08950F931F93CF932E
S11301C0DF93009759F08C01C0E0D0E088EE93E013
S11301D00E94D0002196C017D107C1F7DF91CF91BB
S11301E01F910F9108954F925F926F927F928F9219
S11301F09F92AF92BF92CF92DF92EF92FF92E82F3D
S1130200F0E0EE0FFF1FE25EFE4FE080F1809E9D66
S113021020019F9D500C1124569447945694479462
S113022056944794612C712C970140E050E060E2B1
S113023071EA87E090E00E942B0349015A01EF28FC
S113024021F48DE790E00E94DD00141415041604D7
S11302501704ACF4C12CD12C76015A9AC4010E9423
S1130260D0005A98C4010E94D0008FEFC81AD80A4F
S1130270E80AF80AC414D504E604F70474F38AE01F
S113028090E00E94DD00FF90EF90DF90CF90BF9050
S1130290AF909F908F907F906F905F904F90089554
S11302A00F931F93CF93DF93FC012081222399F0B6
S11302B08C01C0E0D0E0FE01EE0FFF1FE00FF11F44
S11302C0818192810E94F3002196F801208130E01F
S11302D0C217D30784F3DF91CF911F910F91089533
S11302E0529A8AB18C7F8AB987B18C7F87B981E0B1
S11302F0809381000E94BF000E943B0280E091E055
S11303009093B4038093B30381E00E9422020E947D
S11303105D000E9496008F3FD1F70E945D000E940D
S113032096008F3FD1F30E945D000E9496008130B9
S113033021F48DE192E00E9450010E945D000E9430
S11303409600823021F484E591E00E9450010E94DD
S11303505D000E9496008330D1F686EE92E00E9402
S11303605001D5CF479A85E08A95F1F70000479868
S113037085E08A95F1F70000089584B1807F84B9FF
S113038095B1292F20712C98469A479A85E08A9531
S1130390F1F7000093B1479885E08A95F1F70000E2
S11303A0479A85E08A95F1F7000083B19295907F92
S11303B08F70892B479895E09A95F1F7000087FD97
S11303C0E4CF469895B19F7E922B95B994B19F60E6
S11303D094B908950E94BD0184B1807F84B9469A7E
S11303E0479A85E08A95F1F7000023B1479885E0A4
S11303F08A95F1F70000479A85E08A95F1F70000A5
S113040093B12295207F892F8F704798469894B195
S11304109F6094B9822B0895CF93C82F0E94BD0189
S113042095B18C2F82958F70907F982B95B90E94EF
S1130430B20195B18C2F8F70907F892B85B9CF91A4
S11304400C94B201CF93C82F2C980E94BD0195B192
S11304508C2F82958F70907F982B95B90E94B20152
S113046095B18C2F8F70907F892B85B90E94B20132
S11304702C9ACF91089585B1807E85B92C984698A1
S1130480479884B18F6184B987B1806C87B98FE54F
S11304909AEE0197F1F700C0000085B1807F836078
S11304A085B90E94B20187E090E20197F1F700C09C
S11304B0000085B1807F836085B90E94B20187EC1A
S11304C090E00197F1F700C0000085B1807F836060
S11304D085B90E94B2010E94BD0185B1807F82600E
S11304E085B90E94B20184E20E9422028CE20E9439
S11304F0220288E00E94220281E00E94220286E019
S11305000E9422028FE00E94220280ED0E942202B9
S11305102C9A08953F924F925F926F927F928F929E
S11305209F92AF92BF92CF92DF92EF92FF920F937E
S11305301F93CF93DF93CDB7DEB7E0970FB6F89450
S1130540DEBF0FBECDBF8A3009F481C0382E809142
S1130550B00381111DC0832D0E940C0281E090E044
S1130560E0960FB6F894DEBF0FBECDBFDF91CF91FA
S11305701F910F91FF90EF90DF90CF90BF90AF90BD
S11305809F908F907F906F905F904F903F900895D1
S113059080EC0E9422028E010F5F1F4F4E0181E109
S11305A0880E911C78010E94EA01F70181937F0172
S11305B0E815F905C1F780E90E94220264015E0191
S11305C0F1E2AF0EB11C74010E94EA01F7018193BC
S11305D07F01EA15FB05C1F780ED0E942202750137
S11305E03E01F1E36F0E711C25010E94EA01F20144
S11305F081932F01E615F705C1F781E00E942202DD
S113060080E80E942202F80181918F010E940C026D
S113061080169106C1F780EC0E942202F6018191B6
S11306206F010E940C02AC14BD04C1F780E90E9462
S11306302202F70181917F010E940C026E147F0453
S1130640C1F780ED0E9422021092B00384CF81E0B2
S11306508093B00383CF052E97FB1EF400940E9471
S1130660420357FD07D00E944A0307FC03D04EF40F
S11306700C94420350954095309521953F4F4F4F30
S11306805F4F089590958095709561957F4F8F4F3A
S11306909F4F0895A1E21A2EAA1BBB1BFD010DC09A
S11306A0AA1FBB1FEE1FFF1FA217B307E407F5071E
S11306B020F0A21BB30BE40BF50B661F771F881FFA
S11306C0991F1A9469F760957095809590959B0190
S10F06D0AC01BD01CF010895F894FFCFE8
S11306DC00000002000000008A0200000000010279
S11306EC030A0405060B0708090C2A00230D000055
S11306FC0B022A024B026E029302BA02E4021003AA
S113070C3F037003A403DC03170455049704270563
S113071C2006E0064907B8072D082D094D0AEA0AF8
S113072C400CC00D1A050303010102030205020566
S113073C020504030203020304050208020804056B
S113074C030301010203020502050205020502036B
S113075C020302050203020108000000000000006D
S113076C0000000000000000000000000000000079
S113077C0000000000000000000000000000000069
S113078C0000000000000000000000000000000059
S113079C0000000000000000000000000000000049
S11307AC0000000000000000000000000000000039
S11307BC0000000000000000000000000000000029
S11307CC0000000000000000000000000000000019
S11307DC0000000000000000000000000000000009
S11307EC000000000000000000000000000E030CDC
S11307FC050103030201030308040C080F04080297
S113080C08020A0408040708050800000000000098
S113081C00000000000000000000000000000000C8
S113082C00000000000000000000000000000000B8
S113083C00000000000000000000000000000000A8
S113084C0000000000000000000000000000000098
S113085C0000000000000000000000000000000088
S113086C0000000000000000000000000000000078
S113087C0000000000000000000000000000000068
S113088C0000000000000000000000000000000058
S113089C0000000000000000000000000000000048
S11308AC0000000000000000000000000000000038
S11308BC000000000000611701170100011701007E
S11308CC01150117010001190100031101000315A1
S11308DC01000211010002100100021201000114B6
S11308EC0100011301120100011101170119011A70
S11308FC010001180119010001170100011501166D
S113090C0114010002150100021101000210010082
S113091C0212010001140100011301120100011162
S113092C01170119011A010001180119010001171D
S113093C0100011501160114010002000000000061
S113094C0000000000000000000000000000000097
S113095C0000000000000000000000000000000087
S113096C0000000000000000000000000000000077
S113097C0000000000000000000000000000000067
S9030000FC
