S00D00004C616230372E73726563A1
S11300000C943E000C945B000C945B000C945B001D
S11300100C945B000C945B000C945B000C945B00F0
S11300200C945B000C945B000C945B000C945B00E0
S11300300C945B000C945B000C945B000C945B00D0
S11300400C945B000C945B000C945B000C945B00C0
S11300500C945B000C945B000C945B000C945B00B0
S11300600C945B000C945B000C945B000C945B00A0
S11300700C945B000C945B000C945B0011241FBE79
S1130080CFEFD8E0DEBFCDBF11E0A0E0B1E0ECEBF4
S1130090FAE002C005900D92A033B107D9F721E030
S11300A0A0E3B1E001C01D92A733B207E1F70E94BB
S11300B05D000C945C050C9400000E948E0180E0AD
S11300C091E090933401809333018FEF8AB980E1FA
S11300D081B9149A87B1836087B9E12CF12C00E0CF
S11300E010E0C0E0D2E0912C882483940F2EF3E03A
S11300F05F2EF02D712C6894662461F80F2EFEE0BB
S1130100AF2EF1E0BF2EF02D0F2EFEE1CF2EF1E049
S1130110DF2EF02D039B08C0C11522E0D20721F188
S11301208FEFE81AF80A28C0009B06C0C130D10539
S1130130B9F00F5F1F4F1CC0209731F4882D93E056
S1130140991201C0872D982E21E09216A9F09216DB
S113015078F082E0981621F093E0991210C004C060
S1130160CC0FDD1F962C0BC0D595C795952C07C0D9
S1130170972CC0E0D2E003C0982CC1E0D0E08C2FD3
S113018080958BB99BB18BB988B19E012095309530
S1130190222733708C7F832B88B92FE986E891E07E
S11301A0215080409040E1F700C00000882D0E945B
S11301B075010F30110559F02FE0E216F10461F0DA
S11301C0019B0EC0E12CF12C00E010E009C0E12CF1
S11301D0F12C00E010E004C0E12CF12C00E010E070
S11301E01F930F93BF92AF920E947E02FF92EF92F1
S11301F0DF92CF920E947E028DB79EB708960FB60B
S1130200F8949EBF0FBE8DBF85CF479A85E08A952F
S1130210F1F70000479885E08A95F1F7000008950A
S113022084B1807F84B995B1292F20712C98469A86
S1130230479A85E08A95F1F7000093B1479885E0E5
S11302408A95F1F70000479A85E08A95F1F7000056
S113025083B19295907F8F70892B479895E09A95FA
S1130260F1F7000087FDE4CF469895B19F7E922B6D
S113027095B994B19F6094B908950E94100184B116
S1130280807F84B9469A479A85E08A95F1F7000001
S113029023B1479885E08A95F1F70000479A85E0F5
S11302A08A95F1F7000093B12295207F892F8F70F2
S11302B04798469894B19F6094B9822B0895CF9340
S11302C0C82F0E94100195B18C2F82958F70907F5A
S11302D0982B95B90E94050195B18C2F8F70907F52
S11302E0892B85B9CF910C940501CF93C82F2C98F5
S11302F00E94100195B18C2F82958F70907F982B5E
S113030095B90E94050195B18C2F8F70907F892B30
S113031085B90E9405012C9ACF91089585B1807EFC
S113032085B92C984698479884B18F6184B987B170
S1130330806C87B98FE59AEE0197F1F700C0000051
S113034085B1807F836085B90E94050187E090E2D2
S11303500197F1F700C0000085B1807F836085B903
S11303600E94050187EC90E00197F1F700C00000BE
S113037085B1807F836085B90E9405010E941001C8
S113038085B1807F826085B90E94050184E20E9464
S113039075018CE20E94750188E00E94750181E07C
S11303A00E94750186E00E9475018FE00E9475012C
S11303B080ED0E9475012C9A08953F924F925F92AE
S11303C06F927F928F929F92AF92BF92CF92DF9261
S11303D0EF92FF920F931F93CF93DF93CDB7DEB7C6
S11303E0E0970FB6F894DEBF0FBECDBF8A3009F494
S11303F081C0382E8091300181111DC0832D0E944F
S11304005F0181E090E0E0960FB6F894DEBF0FBE86
S1130410CDBFDF91CF911F910F91FF90EF90DF90AF
S1130420CF90BF90AF909F908F907F906F905F9090
S11304304F903F90089580EC0E9475018E010F5FEC
S11304401F4F4E0181E1880E911C78010E943D01ED
S1130450F70181937F01E815F905C1F780E90E944E
S1130460750164015E01F1E2AF0EB11C74010E94DA
S11304703D01F70181937F01EA15FB05C1F780ED8A
S11304800E94750175013E01F1E36F0E711C250197
S11304900E943D01F20181932F01E615F705C1F792
S11304A081E00E94750180E80E947501F801819144
S11304B08F010E945F0180169106C1F780EC0E94B3
S11304C07501F60181916F010E945F01AC14BD04B6
S11304D0C1F780E90E947501F70181917F010E94B3
S11304E05F016E147F04C1F780ED0E9475011092C4
S11304F0300184CF81E08093300183CFA0E0B0E06D
S1130500E4E8F2E00C943505AE014B5F5F4FFA016D
S113051061917191AF0180913301909134010E94F6
S11305209402E2E00C945105ABE0B0E0EAE9F2E0B9
S11305300C9425056C017B018A01FC01178216824B
S1130540838181FFCCC1CE0101963C01F6019381E8
S1130550F70193FD859193FF81917F01882309F42D
S1130560BAC1853239F493FD859193FF81917F015E
S1130570853229F4B60190E00E948B04E7CF912CD8
S1130580212C312CFFE1F315D8F08B3279F038F4BB
S1130590803279F08332A1F4232D20611DC08D3285
S11305A061F0803369F4232D216016C0832D8260AD
S11305B0382EE32DE4603E2E2AC0F32DF8601DC0D2
S11305C037FC2DC020ED280F2A3040F08E32B9F4CC
S11305D036FC81C1232D2064322E19C036FE06C09C
S11305E08AE0989E200D1124922E11C0EAE02E9EDE
S11305F0200D1124222EF32DF0623F2E08C08C36DC
S113060021F4832D8068382E02C0883641F4F70126
S113061093FD859193FF81917F018111B3CF982F31
S11306209F7D9554933028F40C5F1F4F9FE399836B
S11306300DC0833631F0833771F0833509F059C02A
S113064021C0F801808189830E5F1F4F8824839421
S1130650912C530113C02801F2E04F0E511CF801F4
S1130660A080B18036FE03C0692D70E002C06FEF38
S11306707FEFC5010E9480044C018201F32DFF77B6
S11306803F2E16C0280122E0420E511CF801A08022
S1130690B18036FE03C0692D70E002C06FEF7FEFBA
S11306A0C5010E9475044C01F32DF0683F2E8201B0
S11306B033FC1BC0822D90E088169906B0F4B60175
S11306C080E290E00E948B042A94F4CFF50137FC79
S11306D0859137FE81915F01B60190E00E948B0401
S11306E021102A9421E0821A91088114910471F74F
S11306F0E8C0843611F0893641F5F80137FE07C0A9
S113070060817181828193810C5F1F4F08C0608179
S11307107181072E000C880B990B0E5F1F4FF32D70
S1130720FF763F2E97FF09C090958095709561954F
S11307307F4F8F4F9F4FF0683F2E2AE030E0A30198
S11307400E94C704882E861845C0853731F4232DAE
S11307502F7EB22E2AE030E025C0932D997FB92E4A
S11307608F36C1F018F4883579F0B5C0803719F0A8
S1130770883721F0B0C0E92FE061BE2EB4FE0DC071
S1130780FB2DF460BF2E09C034FE0AC0292F266059
S1130790B22E06C028E030E005C020E130E002C0FF
S11307A020E132E0F801B7FE07C0608171818281E7
S11307B093810C5F1F4F06C06081718180E090E0DF
S11307C00E5F1F4FA3010E94C704882E8618FB2DBD
S11307D0FF773F2E36FE0DC0232D2E7FA22E8914C7
S11307E058F434FE0BC032FC09C0832D8E7EA82E33
S11307F005C0B82CA32C03C0B82C01C0B92CA4FE8E
S11308000FC0FE01E80DF11D8081803321F49A2D83
S1130810997EA92E09C0A2FE06C0B394B39404C065
S11308208A2D867809F0B394A3FC11C0A0FE06C0FB
S1130830B21488F4280C922C9B180EC0B21460F4E5
S1130840B60180E290E00E948B04B394F7CFB21417
S113085018F42B1802C0982C212CA4FE10C0B60149
S113086080E390E00E948B04A2FE17C0A1FC03C0A9
S113087088E790E002C088E590E0B6010CC08A2DBC
S1130880867859F0A1FE02C08BE201C080E2A7FC89
S11308908DE2B60190E00E948B04891438F4B6010D
S11308A080E390E00E948B049A94F7CF8A94F3013A
S11308B0E80DF11D8081B60190E00E948B04811047
S11308C0F5CF222009F442CEB60180E290E00E94E6
S11308D08B042A94F6CFF6018681978102C08FEFAC
S11308E09FEF2B96E2E10C944105FC0105906150C9
S11308F070400110D8F7809590958E0F9F1F089532
S1130900FC016150704001900110D8F780959095DA
S11309108E0F9F1F08950F931F93CF93DF93FB01B7
S1130920238121FD03C08FEF9FEF2CC022FF16C04F
S113093046815781248135814217530744F4A081AD
S1130940B1819D012F5F3F4F318320838C9326819A
S113095037812F5F3F4F3783268314C08B01EC010F
S1130960FB010084F185E02D0995892BE1F6D8017E
S113097016968D919C911797019617969C938E933A
S11309801697CE01DF91CF911F910F910895FA012F
S1130990AA27283051F1203181F1E8946F936E7FBA
S11309A06E5F7F4F8F4F9F4FAF4FB1E03ED0B4E0AB
S11309B03CD0670F781F891F9A1FA11D680F791FEC
S11309C08A1F911DA11D6A0F711D811D911DA11DFD
S11309D020D009F468943F912AE0269F112430190D
S11309E0305D3193DEF6CF010895462F4770405DA8
S11309F04193B3E00FD0C9F7F6CF462F4F70405D57
S1130A004A3318F0495D31FD4052419302D0A9F7B1
S1130A10EACFB4E0A6959795879577956795BA95AB
S1130A20C9F700976105710508959B01AC010A2E71
S1130A3006945795479537952795BA95C9F7620F48
S1130A40731F841F951FA01D08952F923F924F92EC
S1130A505F926F927F928F929F92AF92BF92CF924A
S1130A60DF92EF92FF920F931F93CF93DF93CDB753
S1130A70DEB7CA1BDB0B0FB6F894DEBF0FBECDBFCB
S1130A8009942A88398848885F846E847D848C849C
S1130A909B84AA84B984C884DF80EE80FD800C81A5
S1130AA01B81AA81B981CE0FD11D0FB6F894DEBF88
S10F0AB00FBECDBFED010895F894FFCFF8
S1130ABC0000000200000000DD01000000004C6595
S1130ACC66742053636F72653A2025640A00526978
S1130ADC6768742053636F72653A2025640A0000BA
S9030000FC
